{
    "contractName": "XLock",
    "abi": [
        {
            "anonymous": false,
            "inputs": [
                {
                    "indexed": false,
                    "internalType": "address",
                    "name": "previousAdmin",
                    "type": "address"
                },
                {
                    "indexed": false,
                    "internalType": "address",
                    "name": "newAdmin",
                    "type": "address"
                }
            ],
            "name": "AdminChanged",
            "type": "event"
        },
        {
            "anonymous": false,
            "inputs": [
                {
                    "indexed": true,
                    "internalType": "address",
                    "name": "beacon",
                    "type": "address"
                }
            ],
            "name": "BeaconUpgraded",
            "type": "event"
        },
        {
            "anonymous": false,
            "inputs": [
                {
                    "indexed": false,
                    "internalType": "uint8",
                    "name": "version",
                    "type": "uint8"
                }
            ],
            "name": "Initialized",
            "type": "event"
        },
        {
            "anonymous": false,
            "inputs": [
                {
                    "indexed": true,
                    "internalType": "address",
                    "name": "previousOwner",
                    "type": "address"
                },
                {
                    "indexed": true,
                    "internalType": "address",
                    "name": "newOwner",
                    "type": "address"
                }
            ],
            "name": "OwnershipTransferred",
            "type": "event"
        },
        {
            "anonymous": false,
            "inputs": [
                {
                    "indexed": true,
                    "internalType": "address",
                    "name": "implementation",
                    "type": "address"
                }
            ],
            "name": "Upgraded",
            "type": "event"
        },
        {
            "inputs": [
                {
                    "internalType": "uint256",
                    "name": "_amount",
                    "type": "uint256"
                },
                {
                    "internalType": "uint256",
                    "name": "endDate",
                    "type": "uint256"
                }
            ],
            "name": "_calculateFee",
            "outputs": [
                {
                    "internalType": "uint256",
                    "name": "",
                    "type": "uint256"
                }
            ],
            "stateMutability": "view",
            "type": "function"
        },
        {
            "inputs": [
                {
                    "internalType": "uint256",
                    "name": "id",
                    "type": "uint256"
                }
            ],
            "name": "_eventIs",
            "outputs": [
                {
                    "internalType": "bool",
                    "name": "success",
                    "type": "bool"
                }
            ],
            "stateMutability": "view",
            "type": "function"
        },
        {
            "inputs": [
                {
                    "internalType": "uint256",
                    "name": "",
                    "type": "uint256"
                }
            ],
            "name": "_idVsLockedAsset",
            "outputs": [
                {
                    "internalType": "address",
                    "name": "token",
                    "type": "address"
                },
                {
                    "internalType": "uint256",
                    "name": "amount",
                    "type": "uint256"
                },
                {
                    "internalType": "uint256",
                    "name": "startDate",
                    "type": "uint256"
                },
                {
                    "internalType": "uint256",
                    "name": "endDate",
                    "type": "uint256"
                },
                {
                    "internalType": "uint256",
                    "name": "lastLocked",
                    "type": "uint256"
                },
                {
                    "internalType": "address payable",
                    "name": "beneficiary",
                    "type": "address"
                },
                {
                    "internalType": "bool",
                    "name": "isExchangable",
                    "type": "bool"
                },
                {
                    "internalType": "enum XLock.Status",
                    "name": "status",
                    "type": "uint8"
                },
                {
                    "internalType": "int256",
                    "name": "priceInUSD",
                    "type": "int256"
                }
            ],
            "stateMutability": "view",
            "type": "function"
        },
        {
            "inputs": [],
            "name": "_lockId",
            "outputs": [
                {
                    "internalType": "uint256",
                    "name": "",
                    "type": "uint256"
                }
            ],
            "stateMutability": "view",
            "type": "function"
        },
        {
            "inputs": [
                {
                    "internalType": "address",
                    "name": "token",
                    "type": "address"
                },
                {
                    "internalType": "uint256",
                    "name": "minAmount",
                    "type": "uint256"
                },
                {
                    "internalType": "address",
                    "name": "priceFeedAddress",
                    "type": "address"
                }
            ],
            "name": "addToken",
            "outputs": [],
            "stateMutability": "nonpayable",
            "type": "function"
        },
        {
            "inputs": [
                {
                    "internalType": "uint256",
                    "name": "id",
                    "type": "uint256"
                },
                {
                    "internalType": "address",
                    "name": "SWAPTOKEN",
                    "type": "address"
                }
            ],
            "name": "claim",
            "outputs": [],
            "stateMutability": "payable",
            "type": "function"
        },
        {
            "inputs": [
                {
                    "internalType": "uint256",
                    "name": "id",
                    "type": "uint256"
                }
            ],
            "name": "claimable",
            "outputs": [
                {
                    "internalType": "bool",
                    "name": "_claimable",
                    "type": "bool"
                }
            ],
            "stateMutability": "view",
            "type": "function"
        },
        {
            "inputs": [
                {
                    "internalType": "address",
                    "name": "_token",
                    "type": "address"
                },
                {
                    "internalType": "uint256",
                    "name": "amount",
                    "type": "uint256"
                },
                {
                    "internalType": "uint256",
                    "name": "endDate",
                    "type": "uint256"
                },
                {
                    "internalType": "uint256[][]",
                    "name": "option",
                    "type": "uint256[][]"
                },
                {
                    "internalType": "address payable",
                    "name": "beneficiary",
                    "type": "address"
                },
                {
                    "internalType": "bool",
                    "name": "isExchangable",
                    "type": "bool"
                }
            ],
            "name": "deposit",
            "outputs": [],
            "stateMutability": "payable",
            "type": "function"
        },
        {
            "inputs": [
                {
                    "internalType": "address",
                    "name": "_priceFeedAddress",
                    "type": "address"
                }
            ],
            "name": "getLatestPrice",
            "outputs": [
                {
                    "internalType": "int256",
                    "name": "",
                    "type": "int256"
                }
            ],
            "stateMutability": "view",
            "type": "function"
        },
        {
            "inputs": [
                {
                    "internalType": "uint256",
                    "name": "id",
                    "type": "uint256"
                }
            ],
            "name": "getLockedAsset",
            "outputs": [
                {
                    "internalType": "address",
                    "name": "token",
                    "type": "address"
                },
                {
                    "internalType": "address",
                    "name": "beneficiary",
                    "type": "address"
                },
                {
                    "internalType": "uint256",
                    "name": "amount",
                    "type": "uint256"
                },
                {
                    "internalType": "uint256",
                    "name": "startDate",
                    "type": "uint256"
                },
                {
                    "internalType": "uint256",
                    "name": "endDate",
                    "type": "uint256"
                },
                {
                    "internalType": "uint256",
                    "name": "lastLocked",
                    "type": "uint256"
                },
                {
                    "internalType": "bool",
                    "name": "isExchangable",
                    "type": "bool"
                },
                {
                    "internalType": "enum XLock.Status",
                    "name": "status",
                    "type": "uint8"
                },
                {
                    "internalType": "uint256[][]",
                    "name": "option",
                    "type": "uint256[][]"
                },
                {
                    "internalType": "int256",
                    "name": "priceInUSD",
                    "type": "int256"
                }
            ],
            "stateMutability": "view",
            "type": "function"
        },
        {
            "inputs": [
                {
                    "internalType": "address",
                    "name": "_tokenAddress",
                    "type": "address"
                }
            ],
            "name": "getToken",
            "outputs": [
                {
                    "internalType": "address",
                    "name": "tokenAddress",
                    "type": "address"
                },
                {
                    "internalType": "uint256",
                    "name": "minAmount",
                    "type": "uint256"
                },
                {
                    "internalType": "uint256",
                    "name": "balance",
                    "type": "uint256"
                },
                {
                    "internalType": "address",
                    "name": "priceFeedAddress",
                    "type": "address"
                }
            ],
            "stateMutability": "view",
            "type": "function"
        },
        {
            "inputs": [
                {
                    "internalType": "address",
                    "name": "addr",
                    "type": "address"
                }
            ],
            "name": "initialize",
            "outputs": [],
            "stateMutability": "nonpayable",
            "type": "function"
        },
        {
            "inputs": [],
            "name": "lockedAssetQty",
            "outputs": [
                {
                    "internalType": "bool",
                    "name": "",
                    "type": "bool"
                }
            ],
            "stateMutability": "view",
            "type": "function"
        },
        {
            "inputs": [],
            "name": "owner",
            "outputs": [
                {
                    "internalType": "address",
                    "name": "",
                    "type": "address"
                }
            ],
            "stateMutability": "view",
            "type": "function"
        },
        {
            "inputs": [],
            "name": "proxiableUUID",
            "outputs": [
                {
                    "internalType": "bytes32",
                    "name": "",
                    "type": "bytes32"
                }
            ],
            "stateMutability": "view",
            "type": "function"
        },
        {
            "inputs": [],
            "name": "renounceOwnership",
            "outputs": [],
            "stateMutability": "nonpayable",
            "type": "function"
        },
        {
            "inputs": [
                {
                    "internalType": "address",
                    "name": "newOwner",
                    "type": "address"
                }
            ],
            "name": "transferOwnership",
            "outputs": [],
            "stateMutability": "nonpayable",
            "type": "function"
        },
        {
            "inputs": [
                {
                    "internalType": "address",
                    "name": "newImplementation",
                    "type": "address"
                }
            ],
            "name": "upgradeTo",
            "outputs": [],
            "stateMutability": "nonpayable",
            "type": "function"
        },
        {
            "inputs": [
                {
                    "internalType": "address",
                    "name": "newImplementation",
                    "type": "address"
                },
                {
                    "internalType": "bytes",
                    "name": "data",
                    "type": "bytes"
                }
            ],
            "name": "upgradeToAndCall",
            "outputs": [],
            "stateMutability": "payable",
            "type": "function"
        },
        {
            "inputs": [
                {
                    "internalType": "address",
                    "name": "tokenAddress",
                    "type": "address"
                },
                {
                    "internalType": "address",
                    "name": "_receiver",
                    "type": "address"
                }
            ],
            "name": "withdraw",
            "outputs": [],
            "stateMutability": "payable",
            "type": "function"
        },
        {
            "stateMutability": "payable",
            "type": "receive"
        }
    ],
    "bytecode": "60a06040523060805234801561001457600080fd5b50608051612fc061004c600039600081816104b801528181610501015281816105a0015281816105e001526106730152612fc06000f3fe6080604052600436106101235760003560e01c806395a4808f116100a0578063d3ad1cbf11610064578063d3ad1cbf146103b7578063ddd5e1b2146103d7578063f2fde38b146103ea578063f5b33a221461040a578063f940e3851461042457600080fd5b806395a4808f14610314578063a766a39214610344578063c4d66de814610364578063c56e160f14610384578063d1d58b251461039757600080fd5b806355c4d48f116100e757806355c4d48f1461023c57806359770438146102725780635f469437146102c1578063715018a6146102d75780638da5cb5b146102ec57600080fd5b806316345f181461012f5780633659cfe614610162578063499dfc1d146101845780634f1ef2861461021457806352d1902d1461022757600080fd5b3661012a57005b600080fd5b34801561013b57600080fd5b5061014f61014a366004612598565b610437565b6040519081526020015b60405180910390f35b34801561016e57600080fd5b5061018261017d366004612598565b6104ae565b005b34801561019057600080fd5b506101ff61019f3660046125b5565b60d26020526000908152604090208054600182015460028301546003840154600485015460068601546007909601546001600160a01b039586169694959394929391929182169160ff600160a01b8204811692600160a81b909204169089565b60405161015999989796959493929190612606565b6101826102223660046126ac565b610596565b34801561023357600080fd5b5061014f610666565b34801561024857600080fd5b5061025c6102573660046125b5565b610719565b6040516101599a99989796959493929190612754565b34801561027e57600080fd5b5061029261028d366004612598565b6108c8565b604080516001600160a01b03958616815260208101949094528301919091529091166060820152608001610159565b3480156102cd57600080fd5b5061014f60cf5481565b3480156102e357600080fd5b50610182610960565b3480156102f857600080fd5b506033546040516001600160a01b039091168152602001610159565b34801561032057600080fd5b5061033461032f3660046125b5565b610974565b6040519015158152602001610159565b34801561035057600080fd5b5061018261035f36600461283b565b610b59565b34801561037057600080fd5b5061018261037f366004612598565b610c88565b6101826103923660046128ca565b610e5d565b3480156103a357600080fd5b506103346103b23660046125b5565b61141d565b3480156103c357600080fd5b5061014f6103d2366004612a2f565b6115ef565b6101826103e5366004612a51565b611661565b3480156103f657600080fd5b50610182610405366004612598565b611a1c565b34801561041657600080fd5b5060cf54620186a011610334565b610182610432366004612a81565b611a92565b6000808290506000816001600160a01b031663feaf968c6040518163ffffffff1660e01b815260040160a060405180830381865afa15801561047d573d6000803e3d6000fd5b505050506040513d601f19601f820116820180604052508101906104a19190612ac9565b5091979650505050505050565b6001600160a01b037f00000000000000000000000000000000000000000000000000000000000000001630036104ff5760405162461bcd60e51b81526004016104f690612b19565b60405180910390fd5b7f00000000000000000000000000000000000000000000000000000000000000006001600160a01b0316610548600080516020612f44833981519152546001600160a01b031690565b6001600160a01b03161461056e5760405162461bcd60e51b81526004016104f690612b65565b61057781611b6b565b6040805160008082526020820190925261059391839190611b73565b50565b6001600160a01b037f00000000000000000000000000000000000000000000000000000000000000001630036105de5760405162461bcd60e51b81526004016104f690612b19565b7f00000000000000000000000000000000000000000000000000000000000000006001600160a01b0316610627600080516020612f44833981519152546001600160a01b031690565b6001600160a01b03161461064d5760405162461bcd60e51b81526004016104f690612b65565b61065682611b6b565b61066282826001611b73565b5050565b6000306001600160a01b037f000000000000000000000000000000000000000000000000000000000000000016146107065760405162461bcd60e51b815260206004820152603860248201527f555550535570677261646561626c653a206d757374206e6f742062652063616c60448201527f6c6564207468726f7567682064656c656761746563616c6c000000000000000060648201526084016104f6565b50600080516020612f4483398151915290565b600081815260d26020908152604080832081516101408101835281546001600160a01b0316815260018201548185015260028201548184015260038201546060828101919091526004830154608083015260058301805485518188028101880190965280865287968796879687968796879687969195879586959360a08601939192879084015b8282101561080c576000848152602090819020830180546040805182850281018501909152818152928301828280156107f857602002820191906000526020600020905b8154815260200190600101908083116107e4575b5050505050815260200190600101906107a0565b5050509082525060068201546001600160a01b038116602083015260ff600160a01b8204811615156040840152606090920191600160a81b909104166002811115610859576108596125ce565b600281111561086a5761086a6125ce565b8152602001600782015481525050905080600001519a508060200151985080604001519750806060015196508060c0015199508060800151955080610100015193508060e0015194508060a001519250509193959799509193959799565b6001600160a01b038116600090815260d0602052604081205460d48054839283928392839190839081106108fe576108fe612bb1565b60009182526020918290206040805160808101825260049390930290910180546001600160a01b03908116808552600183015495850186905260028301549385018490526003909201541660609093018390529a929950975095509350505050565b610968611ce3565b6109726000611d3d565b565b600081815260d26020908152604080832081516101408101835281546001600160a01b0316815260018201548185015260028201548184015260038201546060820152600482015460808201526005820180548451818702810187019095528085528695929460a086019390929190879084015b82821015610a5457600084815260209081902083018054604080518285028101850190915281815292830182828015610a4057602002820191906000526020600020905b815481526020019060010190808311610a2c575b5050505050815260200190600101906109e8565b5050509082525060068201546001600160a01b038116602083015260ff600160a01b8204811615156040840152606090920191600160a81b909104166002811115610aa157610aa16125ce565b6002811115610ab257610ab26125ce565b8152602001600782015481525050905060008160a00151600081518110610adb57610adb612bb1565b6020026020010151600081518110610af557610af5612bb1565b6020026020010151826101200151610b0d9190612bdd565b90506000610b1e83600001516108c8565b93505050506000610b2e82610437565b905082610b3c826003612bdd565b12610b4d5750600195945050505050565b50600095945050505050565b610b61611ce3565b604080516080810182526001600160a01b0380861682526020820185815260009383018481528583166060850190815260d480546001818101835597829052955160049096027f9780e26d96b1f2a9a18ef8fc72d589dbf03ef788137b64f43897e83a91e7feec810180549787166001600160a01b031998891617905593517f9780e26d96b1f2a9a18ef8fc72d589dbf03ef788137b64f43897e83a91e7feed85015591517f9780e26d96b1f2a9a18ef8fc72d589dbf03ef788137b64f43897e83a91e7feee840155517f9780e26d96b1f2a9a18ef8fc72d589dbf03ef788137b64f43897e83a91e7feef9092018054929093169190931617905554610c679190612c62565b6001600160a01b03909316600090815260d060205260409020929092555050565b600054610100900460ff1615808015610ca85750600054600160ff909116105b80610cc25750303b158015610cc2575060005460ff166001145b610d255760405162461bcd60e51b815260206004820152602e60248201527f496e697469616c697a61626c653a20636f6e747261637420697320616c72656160448201526d191e481a5b9a5d1a585b1a5e995960921b60648201526084016104f6565b6000805460ff191660011790558015610d48576000805461ff0019166101001790555b610d50611d8f565b610d58611dbe565b600160ce5560c980546001600160a01b0319908116737a250d5630b4cf539739df2c5dacb4c659f2488d1790915560ca8054821673eeeeeeeeeeeeeeeeeeeeeeeeeeeeeeeeeeeeeeee17905560cb8054821673c778417e063141139fce010982780140aa0cd5ab17905560cc805482167395b58a6bff3d14b7db2f5cb5f0ad413dc294065817905560cd80548216730ab61e7c46c6c682c8fc72e110edf69699daa8d217905560d380546001600160a01b03851692169190911790558015610662576000805461ff0019169055604051600181527f7f26b83ff96e1f2b6a682f133852f6798a09c465da95921460cefb38474024989060200160405180910390a15050565b6001600160a01b038216610eb35760405162461bcd60e51b815260206004820152601e60248201527f53656e642076616c69642062656e65666963696172792061646472657373000060448201526064016104f6565b6001600160a01b038616610f095760405162461bcd60e51b815260206004820152601860248201527f53656e642076616c696420746f6b656e2061646472657373000000000000000060448201526064016104f6565b60ce54841015610f525760405162461bcd60e51b815260206004820152601460248201527353656e6420636f727265637420656e644461746560601b60448201526064016104f6565b6001600160a01b038616600090815260d0602052604081205460d480549091908110610f8057610f80612bb1565b906000526020600020906004020190508060010154861015610fe45760405162461bcd60e51b815260206004820152601860248201527f4d696e696d756d20616d6f756e74206f6620746f6b656e73000000000000000060448201526064016104f6565b6000805b85518110156110d357606486828151811061100557611005612bb1565b602002602001015160018151811061101f5761101f612bb1565b6020026020010151836110329190612c79565b11156110805760405162461bcd60e51b815260206004820152601860248201527f4f7073206d75737420626520657175616c20746f20313030000000000000000060448201526064016104f6565b85818151811061109257611092612bb1565b60200260200101516001815181106110ac576110ac612bb1565b6020026020010151826110bf9190612c79565b9150806110cb81612c91565b915050610fe8565b5060006110e088886115ef565b90506110ec8882612c62565b8360020160008282546110ff9190612c79565b909155505060ca546001600160a01b03808b16911603611186578034101561115e5760405162461bcd60e51b8152602060048201526012602482015271496e73756666696369656e742066756e647360701b60448201526064016104f6565b6111688134612c62565b83600201600082825461117b9190612c79565b909155506111ff9050565b6040516323b872dd60e01b8152336004820152306024820152604481018290526001600160a01b038a16906323b872dd906064016020604051808303816000875af11580156111d9573d6000803e3d6000fd5b505050506040513d601f19601f820116820180604052508101906111fd9190612caa565b505b6003830154600090611219906001600160a01b0316610437565b90506040518061014001604052808b6001600160a01b031681526020018a8152602001428152602001898152602001428152602001888152602001876001600160a01b03168152602001861515815260200160028081111561127d5761127d6125ce565b8152602090810183905260cf54600090815260d28252604090819020835181546001600160a01b0319166001600160a01b03909116178155838301516001820155908301516002820155606083015160038201556080830151600482015560a0830151805191926112f69260058501929091019061244f565b5060c082015160068201805460e08501511515600160a01b026001600160a81b03199091166001600160a01b039093169290921791909117808255610100840151919060ff60a81b1916600160a81b836002811115611357576113576125ce565b021790555061012091909101516007909101556001600160a01b03868116600090815260d16020908152604080832060cf54815460018082018455928652939094209092019290925560d35491516322e9330f60e21b81523360048201526024810191909152911690638ba4cc3c90604401600060405180830381600087803b1580156113e357600080fd5b505af11580156113f7573d6000803e3d6000fd5b505060cf805492509050600061140c83612c91565b919050555050505050505050505050565b600081815260d26020908152604080832081516101408101835281546001600160a01b0316815260018201548185015260028201548184015260038201546060820152600482015460808201526005820180548451818702810187019095528085528695929460a086019390929190879084015b828210156114fd576000848152602090819020830180546040805182850281018501909152818152928301828280156114e957602002820191906000526020600020905b8154815260200190600101908083116114d5575b505050505081526020019060010190611491565b5050509082525060068201546001600160a01b038116602083015260ff600160a01b8204811615156040840152606090920191600160a81b90910416600281111561154a5761154a6125ce565b600281111561155b5761155b6125ce565b815260079190910154602090910152905060028161010001516002811115611585576115856125ce565b146115c45760405162461bcd60e51b815260206004820152600f60248201526e105cdcd95d081a5cc818db1bdcd959608a1b60448201526064016104f6565b4281606001511115806115db57506115db83610974565b156115e95750600192915050565b50919050565b60008060016301e133806116034286612c62565b61160d9190612cc7565b1161161a57506001611636565b6301e1853e6116294285612c62565b6116339190612cc7565b90505b600060646116448387612ce9565b61164e9190612cc7565b6116589086612c79565b95945050505050565b816116746033546001600160a01b031690565b6001600160a01b0316336001600160a01b0316146116cb5760405162461bcd60e51b81526020600482015260146024820152734f6e6c79206f776e65722063616e20636c61696d60601b60448201526064016104f6565b6116d48161141d565b6117145760405162461bcd60e51b815260206004820152601160248201527010d85b89dd0818db185a5b48185cdcd95d607a1b60448201526064016104f6565b600083815260d26020526040812060058101805491929160649190839061173d5761173d612bb1565b9060005260206000200160018154811061175957611759612bb1565b906000526020600020015483600101546117739190612ce9565b61177d9190612cc7565b90506117bd6040518060400160405280601c81526020017f3131313131313131313131313131313131313131313131313131313100000000815250611de5565b60005b60058301546117d190600190612c62565b81101561184157600583016117e7826001612c79565b815481106117f7576117f7612bb1565b9060005260206000200183600501828154811061181657611816612bb1565b9060005260206000200190805461182e9291906124ac565b508061183981612c91565b9150506117c0565b508160050180548061185557611855612d08565b60019003818190600052602060002001600061187191906124f8565b905560058201546000036118955760068201805460ff60a81b1916600160a81b1790555b815460ca546001600160a01b0391821691160361192b576006820154600160a01b900460ff16156118e957815460068301546118e4916001600160a01b03908116918791859160019116611e28565b611a15565b60068201546040516001600160a01b039091169082156108fc029083906000818181858888f19350505050158015611925573d6000803e3d6000fd5b50611a15565b6006820154600160a01b900460ff161561196357815460068301546118e4916001600160a01b03908116918791859160019116611e28565b61199860405180604001604052806014815260200173191919191919191919191919191919191919191960611b815250611de5565b8154600683015460405163a9059cbb60e01b81526001600160a01b0391821660048201526024810184905291169063a9059cbb906044015b6020604051808303816000875af11580156119ef573d6000803e3d6000fd5b505050506040513d601f19601f82011682018060405250810190611a139190612caa565b505b5050505050565b611a24611ce3565b6001600160a01b038116611a895760405162461bcd60e51b815260206004820152602660248201527f4f776e61626c653a206e6577206f776e657220697320746865207a65726f206160448201526564647265737360d01b60648201526084016104f6565b61059381611d3d565b611a9a611ce3565b6001600160a01b038216600090815260d0602052604081205460d4805491929183908110611aca57611aca612bb1565b6000918252602082206002600490920201908101805492905560ca549092506001600160a01b0390811690861603611b365760cd546040516001600160a01b039091169082156108fc029083906000818181858888f19350505050158015611925573d6000803e3d6000fd5b60405163a9059cbb60e01b81526001600160a01b0385811660048301526024820183905286169063a9059cbb906044016119d0565b610593611ce3565b7f4910fdfa16fed3260ed0e7147f7cc6da11a60208b5b9406d12a635614ffd91435460ff1615611bab57611ba6836121c7565b505050565b826001600160a01b03166352d1902d6040518163ffffffff1660e01b8152600401602060405180830381865afa925050508015611c05575060408051601f3d908101601f19168201909252611c0291810190612d1e565b60015b611c685760405162461bcd60e51b815260206004820152602e60248201527f45524331393637557067726164653a206e657720696d706c656d656e7461746960448201526d6f6e206973206e6f74205555505360901b60648201526084016104f6565b600080516020612f448339815191528114611cd75760405162461bcd60e51b815260206004820152602960248201527f45524331393637557067726164653a20756e737570706f727465642070726f786044820152681a58589b195555525160ba1b60648201526084016104f6565b50611ba6838383612263565b6033546001600160a01b031633146109725760405162461bcd60e51b815260206004820181905260248201527f4f776e61626c653a2063616c6c6572206973206e6f7420746865206f776e657260448201526064016104f6565b603380546001600160a01b038381166001600160a01b0319831681179093556040519116919082907f8be0079c531659141344cd1fd0a4f28419497f9722a3daafe3b4186f6b6457e090600090a35050565b600054610100900460ff16611db65760405162461bcd60e51b81526004016104f690612d37565b61097261228e565b600054610100900460ff166109725760405162461bcd60e51b81526004016104f690612d37565b61059381604051602401611df99190612dae565b60408051601f198184030181529190526020810180516001600160e01b031663104c13eb60e21b1790526122be565b611e30611ce3565b60ca546001600160a01b0390811690861603611f4e57604080516002808252606082018352600092602083019080368337505060cb5482519293506001600160a01b031691839150600090611e8757611e87612bb1565b60200260200101906001600160a01b031690816001600160a01b0316815250508481600181518110611ebb57611ebb612bb1565b6001600160a01b03928316602091820292909201015260c95460405163fb3bdb4160e01b815291169063fb3bdb41903490611f00908890869088904290600401612e25565b60006040518083038185885af1158015611f1e573d6000803e3d6000fd5b50505050506040513d6000823e601f3d908101601f19168201604052611f479190810190612e5a565b5050611a15565b60c95460405163095ea7b360e01b81526001600160a01b039182166004820152602481018590529086169063095ea7b3906044016020604051808303816000875af1158015611fa1573d6000803e3d6000fd5b505050506040513d601f19601f82011682018060405250810190611fc59190612caa565b5060cb546060906001600160a01b0387811691161480611ff2575060cb546001600160a01b038681169116145b15612084576040805160028082526060820183529091602083019080368337019050509050858160008151811061202b5761202b612bb1565b60200260200101906001600160a01b031690816001600160a01b031681525050848160018151811061205f5761205f612bb1565b60200260200101906001600160a01b031690816001600160a01b03168152505061213f565b60408051600380825260808201909252906020820160608036833701905050905085816000815181106120b9576120b9612bb1565b6001600160a01b03928316602091820292909201015260cb548251911690829060019081106120ea576120ea612bb1565b60200260200101906001600160a01b031690816001600160a01b031681525050848160028151811061211e5761211e612bb1565b60200260200101906001600160a01b031690816001600160a01b0316815250505b60c9546040516338ed173960e01b81526001600160a01b03909116906338ed1739906121779087908790869088904290600401612eeb565b6000604051808303816000875af1158015612196573d6000803e3d6000fd5b505050506040513d6000823e601f3d908101601f191682016040526121be9190810190612e5a565b50505050505050565b6001600160a01b0381163b6122345760405162461bcd60e51b815260206004820152602d60248201527f455243313936373a206e657720696d706c656d656e746174696f6e206973206e60448201526c1bdd08184818dbdb9d1c9858dd609a1b60648201526084016104f6565b600080516020612f4483398151915280546001600160a01b0319166001600160a01b0392909216919091179055565b61226c836122df565b6000825111806122795750805b15611ba657612288838361231f565b50505050565b600054610100900460ff166122b55760405162461bcd60e51b81526004016104f690612d37565b61097233611d3d565b80516a636f6e736f6c652e6c6f67602083016000808483855afa5050505050565b6122e8816121c7565b6040516001600160a01b038216907fbc7cd75a20ee27fd9adebab32041f755214dbc6bffa90cc0225b39da2e5c2d3b90600090a250565b60606001600160a01b0383163b6123875760405162461bcd60e51b815260206004820152602660248201527f416464726573733a2064656c65676174652063616c6c20746f206e6f6e2d636f6044820152651b9d1c9858dd60d21b60648201526084016104f6565b600080846001600160a01b0316846040516123a29190612f27565b600060405180830381855af49150503d80600081146123dd576040519150601f19603f3d011682016040523d82523d6000602084013e6123e2565b606091505b50915091506116588282604051806060016040528060278152602001612f64602791396060831561241457508161241e565b61241e8383612425565b9392505050565b8151156124355781518083602001fd5b8060405162461bcd60e51b81526004016104f69190612dae565b82805482825590600052602060002090810192821561249c579160200282015b8281111561249c578251805161248c918491602090910190612516565b509160200191906001019061246f565b506124a8929150612551565b5090565b8280548282559060005260206000209081019282156124ec5760005260206000209182015b828111156124ec5782548255916001019190600101906124d1565b506124a892915061256e565b5080546000825590600052602060002090810190610593919061256e565b8280548282559060005260206000209081019282156124ec579160200282015b828111156124ec578251825591602001919060010190612536565b808211156124a857600061256582826124f8565b50600101612551565b5b808211156124a8576000815560010161256f565b6001600160a01b038116811461059357600080fd5b6000602082840312156125aa57600080fd5b813561241e81612583565b6000602082840312156125c757600080fd5b5035919050565b634e487b7160e01b600052602160045260246000fd5b6003811061260257634e487b7160e01b600052602160045260246000fd5b9052565b6001600160a01b038a81168252602082018a9052604082018990526060820188905260808201879052851660a082015283151560c0820152610120810161265060e08301856125e4565b826101008301529a9950505050505050505050565b634e487b7160e01b600052604160045260246000fd5b604051601f8201601f1916810167ffffffffffffffff811182821017156126a4576126a4612665565b604052919050565b600080604083850312156126bf57600080fd5b82356126ca81612583565b915060208381013567ffffffffffffffff808211156126e857600080fd5b818601915086601f8301126126fc57600080fd5b81358181111561270e5761270e612665565b612720601f8201601f1916850161267b565b9150808252878482850101111561273657600080fd5b80848401858401376000848284010152508093505050509250929050565b600061014080830160018060a01b03808f1685526020818f16818701528d60408701528c60608701528b60808701528a60a087015289151560c087015261279e60e087018a6125e4565b6101008601939093525085519081905261016080850192600583901b860190910191908088016000805b8481101561281c5788860361015f19018752825180518088529085019085880190845b81811015612807578351835292870192918701916001016127eb565b505097850197965050918301916001016127c8565b50505050506101209390930193909352509a9950505050505050505050565b60008060006060848603121561285057600080fd5b833561285b81612583565b925060208401359150604084013561287281612583565b809150509250925092565b600067ffffffffffffffff82111561289757612897612665565b5060051b60200190565b80356128ac81612583565b919050565b801515811461059357600080fd5b80356128ac816128b1565b60008060008060008060c087890312156128e357600080fd5b6128ed8735612583565b86359550602087013594506040870135935067ffffffffffffffff6060880135111561291857600080fd5b6060870135870188601f82011261292e57600080fd5b61294061293b823561287d565b61267b565b81358082526020808301929160051b8401018b101561295e57600080fd5b602083015b6020843560051b850101811015612a035767ffffffffffffffff8135111561298a57600080fd5b803584018c603f82011261299d57600080fd5b6129ad61293b602083013561287d565b602082810135808352908201919060051b83016040018f8111156129d057600080fd5b6040840193505b808410156129f25783358352602093840193909201916129d7565b508552505060209283019201612963565b509450612a15915050608088016128a1565b9150612a2360a088016128bf565b90509295509295509295565b60008060408385031215612a4257600080fd5b50508035926020909101359150565b60008060408385031215612a6457600080fd5b823591506020830135612a7681612583565b809150509250929050565b60008060408385031215612a9457600080fd5b8235612a9f81612583565b91506020830135612a7681612583565b805169ffffffffffffffffffff811681146128ac57600080fd5b600080600080600060a08688031215612ae157600080fd5b612aea86612aaf565b9450602086015193506040860151925060608601519150612b0d60808701612aaf565b90509295509295909350565b6020808252602c908201527f46756e6374696f6e206d7573742062652063616c6c6564207468726f7567682060408201526b19195b1959d85d1958d85b1b60a21b606082015260800190565b6020808252602c908201527f46756e6374696f6e206d7573742062652063616c6c6564207468726f7567682060408201526b6163746976652070726f787960a01b606082015260800190565b634e487b7160e01b600052603260045260246000fd5b634e487b7160e01b600052601160045260246000fd5b60006001600160ff1b0381841382841380821686840486111615612c0357612c03612bc7565b600160ff1b6000871282811687830589121615612c2257612c22612bc7565b60008712925087820587128484161615612c3e57612c3e612bc7565b87850587128184161615612c5457612c54612bc7565b505050929093029392505050565b600082821015612c7457612c74612bc7565b500390565b60008219821115612c8c57612c8c612bc7565b500190565b600060018201612ca357612ca3612bc7565b5060010190565b600060208284031215612cbc57600080fd5b815161241e816128b1565b600082612ce457634e487b7160e01b600052601260045260246000fd5b500490565b6000816000190483118215151615612d0357612d03612bc7565b500290565b634e487b7160e01b600052603160045260246000fd5b600060208284031215612d3057600080fd5b5051919050565b6020808252602b908201527f496e697469616c697a61626c653a20636f6e7472616374206973206e6f74206960408201526a6e697469616c697a696e6760a81b606082015260800190565b60005b83811015612d9d578181015183820152602001612d85565b838111156122885750506000910152565b6020815260008251806020840152612dcd816040850160208701612d82565b601f01601f19169190910160400192915050565b600081518084526020808501945080840160005b83811015612e1a5781516001600160a01b031687529582019590820190600101612df5565b509495945050505050565b848152608060208201526000612e3e6080830186612de1565b6001600160a01b03949094166040830152506060015292915050565b60006020808385031215612e6d57600080fd5b825167ffffffffffffffff811115612e8457600080fd5b8301601f81018513612e9557600080fd5b8051612ea361293b8261287d565b81815260059190911b82018301908381019087831115612ec257600080fd5b928401925b82841015612ee057835182529284019290840190612ec7565b979650505050505050565b85815284602082015260a060408201526000612f0a60a0830186612de1565b6001600160a01b0394909416606083015250608001529392505050565b60008251612f39818460208701612d82565b919091019291505056fe360894a13ba1a3210667c828492db98dca3e2076cc3735a920a3ca505d382bbc416464726573733a206c6f772d6c6576656c2064656c65676174652063616c6c206661696c6564a26469706673582212209ca224e76c31c81895c520b2904a5e34f9d8cfc50b6a9ee5532120c4871d284564736f6c634300080f0033",
    "sourcePath": "/home/ed/Desktop/001/Xlock/contracts/XLock.sol",
    "compiler": {
        "name": "solc",
        "version": "0.8.15+commit.e14f2714"
    },
    "functionHashes": {
        "_calculateFee(uint256,uint256)": "d3ad1cbf",
        "_eventIs(uint256)": "95a4808f",
        "_idVsLockedAsset(uint256)": "499dfc1d",
        "_lockId()": "5f469437",
        "addToken(address,uint256,address)": "a766a392",
        "claim(uint256,address)": "ddd5e1b2",
        "claimable(uint256)": "d1d58b25",
        "deposit(address,uint256,uint256,uint256[][],address,bool)": "c56e160f",
        "getLatestPrice(address)": "16345f18",
        "getLockedAsset(uint256)": "55c4d48f",
        "getToken(address)": "59770438",
        "initialize(address)": "c4d66de8",
        "lockedAssetQty()": "f5b33a22",
        "owner()": "8da5cb5b",
        "proxiableUUID()": "52d1902d",
        "renounceOwnership()": "715018a6",
        "transferOwnership(address)": "f2fde38b",
        "upgradeTo(address)": "3659cfe6",
        "upgradeToAndCall(address,bytes)": "4f1ef286",
        "withdraw(address,address)": "f940e385"
    },
    "gasEstimates": {
        "creation": {
            "codeDepositCost": "2444800",
            "executionCost": "infinite",
            "totalCost": "infinite"
        },
        "external": {
            "_calculateFee(uint256,uint256)": "infinite",
            "_eventIs(uint256)": "infinite",
            "_idVsLockedAsset(uint256)": "15591",
            "_lockId()": "2351",
            "addToken(address,uint256,address)": "infinite",
            "claim(uint256,address)": "infinite",
            "claimable(uint256)": "infinite",
            "deposit(address,uint256,uint256,uint256[][],address,bool)": "infinite",
            "getLatestPrice(address)": "infinite",
            "getLockedAsset(uint256)": "infinite",
            "getToken(address)": "13520",
            "initialize(address)": "infinite",
            "lockedAssetQty()": "2392",
            "owner()": "2412",
            "proxiableUUID()": "infinite",
            "renounceOwnership()": "infinite",
            "transferOwnership(address)": "infinite",
            "upgradeTo(address)": "infinite",
            "upgradeToAndCall(address,bytes)": "infinite",
            "withdraw(address,address)": "infinite"
        },
        "internal": {
            "_authorizeUpgrade(address)": "infinite",
            "swap(address,address,uint256,uint256,address)": "infinite"
        }
    }
}